:020000040800F2
:10000000A85F00205D02000839540008E746000898
:10001000DD530008EF0A00087D6D000800000000B5
:100020000000000000000000000000009D0100082A
:10003000AF12000800000000F9010008BB5F0008D3
:1000400077020008770200087702000877020008AC
:10005000770200087702000877020008770200089C
:10006000770200087702000877020008E510000810
:10007000F5100008051100081511000825110008E9
:1000800035110008451100087702000877020008C2
:10009000F50A0008770200087702000877020008D6
:1000A000770200087702000877020008770200084C
:1000B000770200087702000877020008770200083C
:1000C000770200087702000877020008770200082C
:1000D00077020008B96B0008CD6B0008E16B0008DF
:1000E000770200087702000877020008770200080C
:1000F000770200087702000877020008551100080F
:1001000077020008770200087702000877020008EB
:10011000F163000805640008770200089960000890
:1001200077020008651100087511000877020008C1
:1001300077020008770200087702000877020008BB
:1001400077020008770200087702000877020008AB
:10015000770200088511000895110008F56B00086A
:10016000770200087702000877020008770200088B
:1001700077020008770200087702000800000000FC
:100180007702000877020008DFF80CD000F0E8FAE8
:1001900000480047C96F0008A85F00202C4B196871
:1001A0000868B0E8F04F80F30988BFF36F8F4FF015
:1001B000000080F3118870470000000008480068C4
:1001C000006880F308884FF0000080F3148862B65E
:1001D00061B6BFF34F8FBFF36F8F00DF00BF00BF6B
:1001E00008ED00E0DFF80C00016841F470010160E7
:1001F000704700BF88ED00E0EFF30980BFF36F8F19
:10020000134B1A681EF0100F08BF20ED108A20E96A
:10021000F04F106009B44FF0500080F31188BFF325
:100220004F8FBFF36F8F08F0E5FA4FF0000080F3B7
:10023000118809BC19680868B0E8F04F1EF0100F6B
:1002400008BFB0EC108A80F30988BFF36F8F704746
:1002500064000020EFF305807047000006488047E7
:1002600006480047FEE7FEE7FEE7FEE7FEE7FEE79B
:10027000FEE7FEE7FEE7FEE785600008890100086B
:100280002DE9F05F0546002092469B4688460646CB
:10029000814640241BE0284641464746224600F05E
:1002A000A8F953465A46C01A914110D31146184630
:1002B000224600F08FF92D1A67EB01084F462246BF
:1002C0000120002100F086F917EB00094E41201EA5
:1002D000A4F10104DFDC484631462A464346BDE826
:1002E000F09F40EA01039B0703D009E008C9121FF1
:1002F00008C0042AFAD203E011F8013B00F8013BE0
:10030000521EF9D27047D2B201E000F8012B491E0B
:10031000FBD270470022F6E710B513460A460446A2
:100320001946FFF7F0FF204610BD2DE9FE4F80462D
:1003300081EA0300C00F0C46009021F0004123F039
:100340000045B8EB0200A94105D24046214690463F
:100350001C460B46024623F00040104347D0270DB1
:10036000C7F30A00C3F30A510290401A01904028D3
:100370006BDAC3F3130040F4801B0098924620B15F
:100380000023D2EB030A63EB0B0B01985946C0F133
:100390004002504600F01EF906460D4650465946AA
:1003A000019A00F036F910EB08006141002487EA59
:1003B000115284EAE7731A4340D0009A62B3019A5B
:1003C000012A4FEA075215DC001B61EB02014FF0D6
:1003D000004202EA0752CDE90042001C41F58011BB
:1003E00032462B4600F06DF903B0BDE8F08F404671
:1003F0002146F9E7001B61EB0201001C41F5801367
:1004000000185B412018A2F5001747EB030140EAF2
:10041000D570B6196D4111E06D084FEA360645EA10
:10042000C0754FEA0752001B61EB0201001C41F549
:10043000801149084FEA30000019514132462B46DD
:1004400003B0BDE8F04F00F02DB900980122400044
:100450000023D0EB020263EBE073009821464FEAE1
:10046000E074B8EB000061EB0401E9E783F00043BE
:100470005BE781F0004158E72DE9FE4F81EA030474
:1004800004F0004421F0004100944FF0000B23F0F1
:10049000004350EA01045ED052EA03045BD0C3F388
:1004A0000A54C1F30A552C44A4F2F3340194A0FB7E
:1004B0000254C1F3130141F48011C3F3130343F455
:1004C000801301FB024400FB034E840A970A44EAAE
:1004D000815447EA8357A4FB076802958D0A05FB00
:1004E00007854FEA932C04FB0C542705029D4FEA25
:1004F000065847EA1637B5EB08056EEB070C870E72
:10050000920E47EA811742EA8312A7FB0201B6EB7B
:100510000B0164EB00042B0D43EA0C335E1844EB33
:100520001C50DA465146E7FB0201C5F313044FEABB
:100530000B3343EA14534FEA0432019C43EA0603A7
:10054000A4F10C040294009CCDE900B400F0B9F8C9
:1005500003B0BDE8F08F00200146F9E70EB540F288
:10056000334102910021CDE900110A460B4600F00B
:10057000A8F803B000BD00F0004230F000400AD0FF
:10058000C10D01F56071C0F3160042EA0151C208C5
:1005900040071143704700200146704701F00043B7
:1005A00030B421F0004150EA010206D00A0DA2F554
:1005B0006072C1F31301002A02DC30BC00207047D6
:1005C000440F44EAC104C100E01830BC00EBC25043
:1005D00000F031B8202A04DB203A00FA02F10020B2
:1005E00070479140C2F1200320FA03F31943904071
:1005F0007047202A04DB203A21FA02F000217047DC
:1006000021FA02F3D040C2F120029140084319467A
:100610007047202A06DBCB17203A41FA02F043EA62
:10062000E07306E041FA02F3D040C2F120029140AB
:100630000843194670470029A8BF7047401C49006D
:1006400008BF20F00100704710B4B0FA80FC00FA37
:100650000CF050EA010404BF10BC704749B1CCF162
:10066000200421FA04F411FA0CF118BF01212143EE
:100670000843A3EB0C01CB1D4FEA00614FEA1020A9
:1006800042BF002010BC704700EBC350104400294B
:10069000A4BF10BC7047401C490008BF20F00100F7
:1006A00010BC704710B5141E73F1000408DA401C2A
:1006B00041F1000192185B411A4301D120F0010081
:1006C00010BD2DE9F04D92469B4611B1B1FA81F271
:1006D00002E0B0FA80F220329046FFF77BFF04463A
:1006E0000F4640EA0A0041EA0B0153465A460843C6
:1006F00013D0114653EA010019D0C8F14002504608
:10070000FFF777FF05460E46504659464246FFF72B
:1007100061FF084305D0012004E020463946BDE8CA
:10072000F08D0020054346EAE0762C4337430A98D3
:100730006305E40AA0EB08000022FD0A44EA4754DE
:100740000A3002D500200146E9E701051019694188
:10075000DDE9084500196941BDE8F04DA2E7000058
:10076000064C074D06E0E06840F0010394E80700FE
:1007700098471034AC42F6D3FFF70AFDDC9F00081F
:10078000FC9F000870B58C1810F8015B15F007038A
:1007900001D110F8013B2A1106D110F8012B03E01A
:1007A00010F8016B01F8016B5B1EF9D12B0705D422
:1007B0000023521E0DD401F8013BFAE710F8013B6B
:1007C000CB1A921C03E013F8015B01F8015B521E87
:1007D000F9D5A142D8D3002070BD000055494A6820
:1007E00022F440324A604A6843681A434A60026809
:1007F000526822F4807203685A6002685368026982
:1008000043EA022203685A600268526822F040728A
:1008100003685A600268526883681A4303685A6022
:100820000268926822F4006203689A600268926823
:10083000C3681A4303689A603F4B826A9A4218D091
:100840000268926822F0706203689A600268926897
:10085000836A1A4303689A600268926822F04052E1
:1008600003689A6002689268C36A1A4303689A60D0
:100870000BE00268926822F0706203689A60026876
:10088000926822F0405203689A600268926822F0EF
:10089000020203689A6002689368027E43EA420299
:1008A00003689A602022125CA2B10268526842F486
:1008B000006203685A600268526822F4604203686A
:1008C0005A6002685368426A521E43EA4232036821
:1008D0005A6005E00268526822F4006203685A60B8
:1008E0000268D26A22F470020368DA620268D36A8C
:1008F000828B521E43EA02520368DA6202689268EF
:1009000022F4007203689A600268936890F83020BD
:1009100043EA422203689A600268926822F4806285
:1009200003689A6002689368426943EA8222036816
:100930009A607047002301400100000F10B50B487A
:1009400000F0E4FE3221094800F078FE074800F08C
:10095000F9FD00F40070B0F5007F04D1034800F009
:10096000F4FD034908800248008810BDF407002008
:100970002C07002000209AE09FED4F0A00EBC001F9
:100980004E4A02EBC10181ED010A9FED4B0A00EBDB
:10099000C00102EBC10181ED000A002100EBC002A1
:1009A000464B03EBC20282F84310454901EB80013C
:1009B00091ED000A00EBC0011A4602EBC10181ED86
:1009C000080A404901EB800191ED000A00EBC001EB
:1009D00002EBC10181ED090A3B4901EB800191ED78
:1009E000000A00EBC00102EBC10181ED0A0A3749A0
:1009F00001EB800191ED000A00EBC00102EBC101A7
:100A000081ED0D0A3249095C00EBC00203EBC20222
:100A100082F845102F49095C00EBC00203EBC202CB
:100A200082F8401000EBC0011A4602EBC10181F8C8
:100A3000440000EBC00102EBC10191ED090AB5EEE3
:100A4000C00AF1EE10FA1FD000EBC00102EBC101A9
:100A5000D1ED090A9FED201A60EE810A1F4991ED40
:100A6000001AC1EE201AB0EE610A00EBC00102EBE1
:100A7000C10181ED0E0AF1EE400A00EBC00102EB6C
:100A8000C101C1ED0F0A10E09FED0B0A00EBC001A0
:100A90000A4A02EBC10181ED0E0A9FED070A00EB45
:100AA000C00102EBC10181ED0F0A411CC8B203284D
:100AB0007FF762AF70470000000000007859002007
:100AC0008407002094070020A4070020985A0020E3
:100AD000C1070020C5070020CDCC4C3DB407002045
:100AE00001460811062202FB1010C0B2704700BF79
:100AF000FEE7000010B5024801F0DEF810BD00006E
:100B00003C0800201CB508F049FD2B490860002076
:100B10000090019000BF002546E02848445D284829
:100B2000261804EB4400274911F830008DF8000026
:100B300004EB440031F8300000128DF8010004EBA2
:100B4000440001EBC00080788DF8020004EB440003
:100B500001EBC000C0788DF8030004EB440001EB0A
:100B6000C00000798DF8040004EB440001EBC000E4
:100B700040798DF8050004EB440001EBC00080795A
:100B80008DF8060004EB440001EBC000007D8DF8F9
:100B900007003346082269460B4800F01FF902207F
:100BA00006F036FA681CC5B2042DB6DB1E210248D9
:100BB00007F038FCAFE70000E8070020E40700205A
:100BC000E0700105385B00203C08002010B58AB0B9
:100BD00000200590069001200790002000900190D1
:100BE000029003900490012008900E20099069461D
:100BF000134800F0EBFE08B100BFFEE70E200590A1
:100C00000F4801F0AAFA08B100BFFEE74FF40B4409
:100C1000A41C21460A4800F01FFE08B100F058FB52
:100C200040F2213007490860074848600020C8604A
:100C30000420886008200861002008750AB010BDF3
:100C40003C080020045B002070EF010570B50246EF
:100C50000B46002142E0234C605C00EB4004224D37
:100C600005EBC404247D032C01DD002405E000EB2A
:100C700040041D4D05EBC404247D00EB40051A4ED5
:100C800006EBC5052C75194D05445C68AC4223D1B3
:100C9000547800EB400506EBC505AC72947800EB88
:100CA000400506EBC505EC72D478157904EB0524F4
:100CB00000EB400506EBC505AC81547900EB40051F
:100CC00006EBC505AC739479D57904EB052400EBEC
:100CD000400506EBC5052C81481CC1B20429BADBCE
:100CE00070BD0000E4070020385B0020E0700105C3
:100CF00010B5002100BF2BE0174A505C002200EB2A
:100D00004003164C04EBC3039A70012200EB40032E
:100D100004EBC303DA70002200EB400304EBC303CF
:100D20001A7100EB400324F8332000EB400304EB7E
:100D3000C3035A7100EB400304EBC3039A71084AE2
:100D4000024400EB400304EBC3031A61481CC1B228
:100D50000429D1DB10BD0000DC070020385B002037
:100D600070EF01057CB504460D464FF6FF7001900B
:100D700048F205060020009025E014F8010B0090D1
:100D80006946684603F0DBFDBDF804009DF80010DD
:100D900080EA01200190002013E0BDF8041001F466
:100DA000004131B1BDF8041086EA410189B20191D8
:100DB00006E0BDF804104FF6FF7202EA410101910E
:100DC000401C0828E9DB281EA5F10105D5D101A9A1
:100DD00001A803F09FFDBDF804007CBD2DE9FE4392
:100DE00080460E4615461F460024A146002018499D
:100DF000086008464760042088600020C8600846F4
:100E0000056100BF04E0305D0DF80400601CC4B251
:100E1000AC42F8DB0BE009F10100C0B28146B0F54D
:100E2000FA7F04DB4FF000090220BDE8FE83404654
:100E300000F027FF0028EED002AB6A460449404686
:100E400000F01FFD08B10120EFE70020EDE70000F2
:100E5000045B002003468B4201DA08467047934248
:100E600001DD1046FAE71846F8E700002DED0A8B81
:100E7000A2B000BF6C494FF0FF32D1F81C0401A9A9
:100E800008F054F80028F5D09DF806006828F1D144
:100E90009DF807000D28EDD19DF80A0000F00F0025
:100EA000642110FB01F000EE100AB8EEC00AB0EEAB
:100EB000408A9DF80B00FFF713FE00EE100AB8EE13
:100EC000400A30EE080AB0EE408A9DF80C00FFF7A9
:100ED00007FE0446FFF742FB9FED540B53EC102B2B
:100EE000FFF7CAFA41EC1A0B18EE100AFFF743FBA2
:100EF00053EC1A2BFFF719FAFFF750FB08EE100A14
:100F00009DF80A000121B1EB201F03D1B1EE480A80
:100F1000B0EE408A474880ED028A9DF80D0000F04F
:100F20000F00642110FB01F000EE100AB8EEC00AB9
:100F3000B0EE408A9DF80E00FFF7D2FD00EE100AD9
:100F4000B8EE400A30EE080AB0EE408A9DF80F0075
:100F5000FFF7C6FD0446FFF701FB9FED340B53EC92
:100F6000102BFFF789FA41EC1A0B18EE100AFFF765
:100F700002FB53EC1A2BFFF7D8F9FFF70FFB08EE33
:100F8000100A9DF80D000121B1EB201F03D1B1EE35
:100F9000480AB0EE408A274880ED018A9DF810008B
:100FA00000F00F00642110FB01F000EE100AB8EE13
:100FB000C00AB0EE408A9DF81100FFF791FD00EEE7
:100FC000100AB8EE400A30EE080AB0EE408A9DF8EA
:100FD0001200FFF785FD0446FFF7C0FA9FED130BE3
:100FE00053EC102BFFF748FA41EC1A0B18EE100ADD
:100FF000FFF7C1FA53EC1A2BFFF797F9FFF7CEFA78
:1010000008EE100A0B4880ED038A9DF810000121BC
:10101000B1EB201F03D1B1EE480AB0EE408A05487B
:1010200080ED038A26E70000F80000207B14AE471D
:10103000E17A843F0C5900201CB500201B49087040
:1010400068208DF8000005208DF801000846007822
:101050008DF802000C208DF8030002208DF80400AA
:101060009DF801009DF8021008449DF80310084403
:101070009DF804100844C0B28DF805000C49FF2308
:101080000622D1F81803694603F048FA0A2001F055
:10109000E5FA0749FF230622D1F81803694603F051
:1010A0003DFA0A2001F0DAFA1CBD00000C590020BC
:1010B000F800002008F072FA0849086000BF0849EB
:1010C000081F04F016FE064910390870FFF736FCB9
:1010D0006421024807F0A6F9F1E700004C00002067
:1010E000EC58002010B5024801F0D8F810BD0000FF
:1010F000C40B002010B5024801F0D0F810BD00006C
:10110000A40D002010B5024801F0C8F810BD000081
:10111000A40A002010B5024801F0C0F810BD00007C
:10112000040E002010B5024801F0B8F810BD000010
:10113000040B002010B5024801F0B0F810BD00000B
:10114000E40C002010B5024801F0A8F810BD000022
:10115000440D002010B5024801F0A0F810BD0000B9
:10116000640B002010B5024801F098F810BD000093
:10117000640E002010B5024801F090F810BD000088
:10118000240C002010B5024801F088F810BD0000C2
:10119000C40E002010B5024801F080F810BD000018
:1011A000840C00200146087810381823B0FBF3F2B5
:1011B0000848805CC865032A05D908686FF30900F0
:1011C000001D886503E008686FF309008865886D75
:1011D00070470000E49D0008014600208A6A8B6980
:1011E000CBB932B1012A0DD0022A03D0032A10D183
:1011F0000EE000BFCB6A03F08073B3F1807F00D1B3
:10120000012007E0CB6AB3F1C07F00D1012001E0EB
:1012100000E000BF34E08B69B3F5005F1AD132B152
:10122000012A07D0022A03D0032A11D10AE000BF05
:1012300001200EE0CB6A03F08073B3F1807F00D110
:10124000012006E0CB6AB3F1C07F00D1012000E0AD
:1012500000BF15E032B1012A05D0022A04D0032ACA
:101260000CD103E000BF00BF012008E0CB6A03F00F
:101270008073B3F1807F00D1012000E000BF00BF88
:10128000704730B50468246824F4802405682C6015
:10129000046863608468402C04D10468A260046818
:1012A000E16003E00468A1600468E26030BD70475B
:1012B00000210AE0002205E000BF00BF00BF00BF20
:1012C000531CDAB20F2AF7DB491C8142F2D3704774
:1012D00072B600BFFEE72DE9F04705460E461446FC
:1012E0001F46DDF820904FF0FF3800200AE0295C0F
:1012F000B94206D1411C695C494502D14FFA80F8D8
:1013000003E0401C611E8142F1DC00BF08F10100D6
:1013100028B921463046FEF7FDFFBDE8F0870020E2
:101320000AE008EB000292FBF4F304FB1322D1B2B3
:101330006A5C3254411CC8B2A042F2DB00BFECE749
:1013400010B5044607F04EFAFFF714FBFFF73EFC1A
:1013500005F016FD03F0BCFBFFF76EFE442004F021
:1013600094FC04F015FD124908700A2001F076F98A
:101370000F48083004F0ECFC0D49097808430C498B
:1013800008700321002004F015FD09490870FFF7DB
:10139000AFFC40F6B8310748006805F0FBFF08F0E5
:1013A00095FA04F015FB002007F0A6F810BD000028
:1013B000DC5800204000002038B502460020009094
:1013C00000BF92F83C00012801D1022038BD012065
:1013D00082F83C0000BF0868092816D91068C06868
:1013E0000C780A3C04EB44050724AC40A043146885
:1013F000E0600C780A3C04EB44048868A040146860
:10140000E46820431468E06013E0106800690C7819
:1014100004EB44050724AC40A043146820610C7819
:1014200004EB44048868A0401468246920431468CD
:1014300020614868072817D21068406B0C79641E39
:1014400004EB84051F24AC40A04314686063088843
:1014500080B20C79641E04EB8404A0401468646BB1
:1014600020431468606331E048680D2817D2106883
:10147000006B0C79E41F04EB84051F24AC40A043EF
:1014800014682063088880B20C79E41F04EB84049C
:10149000A0401468246B20431468206316E0106891
:1014A000C06A0C790D3C04EB84051F24AC40A043BA
:1014B0001468E062088880B20C790D3C04EB840467
:1014C000A0401468E46A20431468E062194B1A4C87
:1014D0001068A04206D10868122803D1586840F469
:1014E00080005860144C1068A0421CD10868102875
:1014F00002D00868112816D1586840F400005860DE
:10150000086810280FD10D4800680D4CB0FBF4F0AE
:1015100000EB80004000009002E00098401E009028
:1015200000980028F9D100BF002082F83C0000BFDD
:1015300000BF4BE700230140002001406000002075
:1015400040420F000146086C704701460868C06CB5
:101550007047000070B5044600250CB9012070BD2D
:101560001549A06A884200D000BF206C30B92046DF
:1015700000F024F80020606484F83C00206C00F047
:10158000100088B9206C20F4885040F002002064DC
:101590002046FFF723F900206064206C20F0020051
:1015A00040F00100206400E0012500BF002084F825
:1015B0003C0000BF2846D2E70100000F10B586B0FE
:1015C0000446142101A8FEF7A5FE194920688842A7
:1015D0002BD100BF002000901648006840F48070B6
:1015E000144908600846006800F48070009000BF4D
:1015F00000BF00BF002000900E481438006840F083
:1016000004000C49143908600846006800F0040022
:10161000009000BF00BF0120019003200290002035
:10162000039001A9044801F02DF806B010BD000098
:1016300000200140443802400008024070B50446D2
:101640000D4600262068806800F48060B0F5806F49
:1016500011D12068806800F48070B0F5807F0AD1D5
:10166000206C40F02000206400BF002084F83C0083
:1016700000BF012070BD01F00DF9064618E0681C9E
:10168000B0B125B101F006F9801BA84210D920683D
:10169000006800F0020002280AD0206C40F004002C
:1016A000206400BF002084F83C0000BF0320E1E775
:1016B0002068006800F002000228E0D16FF01200FC
:1016C00021680860206C40F4007020642068806805
:1016D00000F04050B8B9207EA8B92068C06A00F474
:1016E000700020B12068806800F4806058B9206CD8
:1016F00020F480702064206C00F4805018B9206CB5
:1017000040F0010020640020B4E7000008B5014665
:101710000020009000BF91F83C00012801D1022078
:1017200008BD012081F83C0000BF0868806800F017
:101730000100A0B90868806840F001000B6898605B
:101740003F4800683F4BB0FBF3F000EB40000090D7
:1017500002E00098401E009000980028F9D1086827
:10176000806800F00100002860D0086C40F201633E
:10177000984340F4807008640868406800F4806012
:1017800028B1086C20F4005040F480500864086CC4
:1017900000F48050B0F5805F04D1486C20F0060062
:1017A000486401E00020486400BF002081F83C004C
:1017B00000BF254A6FF022000B681860506800F0E7
:1017C0001F0018BB214B0868984213D0204B0868B3
:1017D000984204D1101D006800F01F0050B11D4B4D
:1017E000086898422AD11848001D006800F01F00C0
:1017F000102823D20868806800F04050F0B90868CB
:10180000806840F080400B68986017E00F4B0868D4
:10181000984213D10868806800F0405070B9086899
:10182000806840F080400B68986007E0086C40F0EA
:1018300010000864486C40F00100486400206FE725
:101840006000002040420F000023014000200140C2
:10185000002101400022014010B5024692F82030DC
:10186000012B01D0022B06D110684069084314688F
:101870006061002010BD506A40F480205062012059
:10188000F8E7F0B504460D461E4694F8207020682F
:101890008368A86800B900E000BF012F01D0022FC3
:1018A0007DD103F0806030B903F0006018B903F017
:1018B000805000287ED0C3F3016101208840306051
:1018C000A86860B9B5F800C0E86840EA4C5C2068D8
:1018D00000F5C07000EB0110C0F800C00FE0D5E9C2
:1018E00001C040EACC00D5F80CC040EA0C00D4F8A6
:1018F00000C00CF5C07C0CEB011CCCF80000D5F846
:1019000010C0206800F5C07000EB0110C0F804C0E2
:10191000287D01280ED1206800F5C07000EB011071
:10192000406840F4807C206800F5C07000EB011036
:10193000C0F804C0D079000692F806C040EA0C4016
:1019400092F805C040EA0C2092F804C040EA0C006E
:10195000D4F800C00CF5C07C0CEB011CCCF80C00DA
:10196000D078000692F802C040EA0C4092F801C01C
:1019700040EA0C2092F800C040EA0C00D4F800C005
:101980000CF5C07C0CEB011CCCF80800206800F5BD
:10199000C07000EB0110006840F0010C01E00FE0A6
:1019A00008E0206800F5C07000EB0110C0F800C02E
:1019B0000020F0BD606A40F4001060620120F8E78A
:1019C000606A40F4802060620120F2E7F0B50446CE
:1019D0000A4694F82050012D01D0022D7ED14249B3
:1019E00001F50071086840F001000860086820F403
:1019F0007C5008600868566A40EA06200860107D3E
:101A000000F01F06012000FA06F3C8699843C86178
:101A1000A1F50071D069C8B9D1F80C029843C1F89A
:101A20000C02908880B2968940EA064601F5107053
:101A3000576940F83760108880B2168940EA064638
:101A400001F51070576900EBC7004660D0690128A6
:101A500019D1D1F80C021843C1F80C02908880B259
:101A6000168840EA064601F51070576940F837605D
:101A7000908980B2168940EA064601F510705769D0
:101A800000EBC7004660906928B9D1F8040298437A
:101A9000C1F8040204E0D1F804021843C1F80402BA
:101AA000106928B9D1F814029843C1F8140204E06F
:101AB000D1F814021843C1F81402106A012804D1A5
:101AC000D1F81C021843C1F81C02D1F8000220F022
:101AD0000100C1F800020020F0BDFFE7606A40F499
:101AE000802060620120F7E700640040704770B515
:101AF000044694F82050012D01D0022D7DD151B91A
:101B00002068C06800F0030080B9606A40F40010EB
:101B10006062012070BD2068006900F0030028B9F0
:101B2000606A40F4001060620120F3E7206800F56D
:101B3000D87000EB0110006800F00400906090681D
:101B400040B9206800F5D87000EB01100068400D26
:101B5000106007E0206800F5D87000EB0110006805
:101B6000C0085060206800F5D87000EB01100068D4
:101B700000F00200D060206800F5D87000EB011082
:101B8000406800F00F00082802D30820106108E028
:101B9000206800F5D87000EB0110406800F00F00DD
:101BA0001061206800F5D87000EB0110406800F467
:101BB0007F40000A9061206800F5D87000EB0110AA
:101BC0004068000C5061206800F5D87000EB0110EF
:101BD00080681870206800F5D87000EB01108068EC
:101BE00000F47F40000A5870206800F5D87000EBC0
:101BF0000110806800F47F0000E03CE0000C987069
:101C0000206800F5D87000EB01108068000ED870D5
:101C1000206800F5D87000EB0110C06818712068CA
:101C200000F5D87000EB0110C06800F47F40000A96
:101C30005871206800F5D87000EB0110C06800F4FE
:101C40007F00000C9871206800F5D87000EB01103F
:101C5000C068000ED87131B92068C06840F020001B
:101C60002668F06005E02068006940F020002668E2
:101C7000306100204EE7606A40F4802060620120FD
:101C800048E70146002091F82020012A01D0022ACD
:101C900011D10B689B6803F0806303B1401C0B6893
:101CA0009B6803F0006303B1401C0B689B6803F062
:101CB000805303B1401C70472DE9F05F04460025B6
:101CC000206846692068D0F80490206887682068FA
:101CD000D0F80CA02068D0F810B02068D0F8188098
:101CE00006F00100002855D007F00100C0B1012026
:101CF0002168886007F0020018B1204600F05DFA04
:101D00000EE007F0040010B145F4006508E007F0AC
:101D1000080010B145F4805502E0204600F04CFA6E
:101D200007F48070C8B14FF480702168886007F4B0
:101D3000007018B1204600F042FA0EE007F480600F
:101D400010B145F4005508E007F4006010B145F407
:101D5000804502E0204600F031FA07F48030C8B137
:101D60004FF480302168886007F4003018B12046B5
:101D700000F027FA0EE007F4802010B145F400458A
:101D800008E007F4002010B145F4803502E0204659
:101D900000F016FA06F0080038B10AF0100020B181
:101DA00045F4007510202168C86006F0040040B1B9
:101DB0000AF0080028B108202168C860204600F019
:101DC000A9F906F0020038B12068C06800F00300ED
:101DD00010B1204600F0A0F906F0400038B10BF039
:101DE000100020B145F4806510202168086106F0DC
:101DF000200040B10BF0080028B1082021680861DC
:101E0000204600F0A7F906F0100038B120680069FC
:101E100000F0030010B1204600F09DF906F40030F8
:101E200040B109F0100028B1102021684860204618
:101E300000F092F906F4803040B109F0080028B1B2
:101E4000082021684860204600F0BCF906F40040F4
:101E500088B309F0040078B306F4807020B108F06C
:101E6000010008B145F0010506F4007020B108F04A
:101E7000020008B145F0020506F4806020B108F0C8
:101E8000040008B145F0040506F40060A0B108F0B4
:101E9000700088B108F07000402817D006DC1028C8
:101EA0000BD020280CD0302819D10CE0502810D0AD
:101EB000602814D110E01DE019E045F008050FE09E
:101EC00045F010050CE045F0200509E045F040051F
:101ED00006E045F0800503E045F4807500E000BFB2
:101EE00000BF2068806920F07000216888610420AC
:101EF000216848602DB1606A284360622046FFF780
:101F0000F5FDBDE8F09F70B504460CB9012070BD29
:101F100094F8200010B9204600F0B0F8206800685E
:101F200040F001002168086000F0B4FC05460DE0B7
:101F300000F0B0FC401B0A2808D9606A40F4003069
:101F40006062052084F820000120E0E720684068F6
:101F500000F001000028EBD02068006820F00200AB
:101F60002168086000F096FC05460DE000F092FC48
:101F7000401B0A2808D9606A40F4003060620520DE
:101F800084F820000120C2E72068406800F00200C9
:101F90000028EBD1207E012806D12068006840F09F
:101FA00080002168086005E02068006820F080005B
:101FB00021680860607E012806D12068006840F032
:101FC00040002168086005E02068006820F04000BB
:101FD00021680860A07E012806D12068006840F0D2
:101FE00020002168086005E02068006820F02000DB
:101FF00021680860E07E012806D12068006820F092
:1020000010002168086005E02068006840F01000BA
:1020100021680860207F012806D12068006840F010
:1020200008002168086005E02068006820F00800CA
:1020300021680860607F012806D12068006840F0B0
:1020400004002168086005E02068006820F00400B2
:1020500021680860D4E902010843216908436169E5
:1020600008436168491E08432168C8610020606216
:10207000012084F82000002049E7000010B586B058
:102080000446142101A8FEF745F91F49206888423B
:1020900038D100BF002000901C48006840F000705C
:1020A0001A4908600846006800F00070009000BF00
:1020B00000BF00BF0020009014481038006840F0B6
:1020C00001001249103908600846006800F001005C
:1020D000009000BF00BF4FF4C0500190022002905A
:1020E00000200390032004900920059001A90848CE
:1020F00000F0C8FA00220521142000F093FC1420FF
:1021000000F07CFC06B010BD006400404038024086
:10211000000002407047000010B504460A492068DC
:10212000096888420ED1094B094A00212046FFF771
:10213000DEFC38B906490548FEF788FD0221204635
:10214000FFF78AFB10BD00003C080020EC070020D0
:102150001C5B002070477047704770B5044694F8C8
:102160002000012822D1022084F820002068006885
:1021700020F001002168086000F08CFB05460DE0AE
:1021800000F088FB401B0A2808D9606A40F4003040
:102190006062052084F82000012070BD206840683E
:1021A00000F001000028EBD16062F6E7606A40F4BD
:1021B000002060620120F0E7704770477047704769
:1021C00070477047704770B50446A56D00F062FB1C
:1021D000064694F83500022808D08020606500BFCC
:1021E000002084F8340000BF012070BD2068006822
:1021F00020F01600216808602068406920F0800007
:1022000021684861206C08B9A06C28B1206800687A
:1022100020F00800216808602068006820F00100B4
:102220002168086010E000F035FB801B05280BD901
:1022300020206065032084F8350000BF002084F86A
:10224000340000BF0320D0E72068006800F00100E0
:102250000028E8D194F85C103F208840A860012055
:1022600084F8350000BF002084F8340000BF00BFB0
:10227000BBE7014691F83500022803D0802048656D
:1022800001207047052081F835000868006820F0BB
:1022900001000A6810600020F3E70000F8B504466A
:1022A000002000908C4800684FF41651B0FBF1F705
:1022B000A56D2E6894F85C1008208840304098B1D5
:1022C0002068006800F0040070B12068006820F009
:1022D00004002168086094F85C1008208840A86019
:1022E000606D40F00100606594F85C10012088404A
:1022F000304068B12068406900F0800040B194F837
:102300005C1001208840A860606D40F002006065AC
:1023100094F85C1004208840304068B12068006860
:1023200000F0020040B194F85C1004208840A860DE
:10233000606D40F00400606594F85C1010208840E7
:10234000304078B32068006800F0080050B394F87B
:102350005C1010208840A8602068006800F480208D
:1023600080B12068006800F4002028B9206CC8B152
:102370002046216C884715E0A06C98B12046A16CDE
:1023800088470FE02068006800F4807028B9206852
:10239000006820F0080021680860206C10B1204619
:1023A000216C884794F85C10202088403040002839
:1023B00065D02068006800F0100000285FD094F815
:1023C0005C1020208840A86094F83500052828D1AA
:1023D0002068006820F016002168086020684069C5
:1023E00020F0800021684861206C08B9A06C28B1F9
:1023F0002068006820F008002168086094F85C10EC
:102400003F208840A860012084F8350000BF0020EC
:1024100084F8340000BF206D10B12046216D88473C
:10242000F8BD2068006800F4802080B12068006852
:1024300000F4002028B9606C10B12046616C884718
:102440001DE0E06BD8B12046E16B884717E02068BB
:10245000006800F4807068B92068006820F01000FF
:1024600021680860012084F8350000BF002084F84E
:10247000340000BFE06B10B12046E16B8847606D0F
:1024800038B3606D00F00100F0B1052084F835002C
:102490002068006820F001002168086000BF0098F3
:1024A000401C0090B84200D905E02068006800F0A8
:1024B00001000028F3D100BF012084F8350000BFDF
:1024C000002084F8340000BFE06C10B12046E16CBD
:1024D000884700BFA4E70000600000202DE9F0411C
:1024E0000446002500F0D6F9074614B90120BDE8DE
:1024F000F081606A00B100BF022084F8350000BF9F
:10250000002084F8340000BF2068006820F001003B
:10251000216808600AE000F0BDF9C01B052805D954
:1025200020206065032084F83500E0E7206800681B
:1025300000F001000028EED1206805682148054020
:10254000D4E901010843E16808432169084361694E
:102550000843A1690843E1690843216A0843054328
:10256000606A042803D1D4E90B01084305432068BD
:1025700005602068456925F00705606A0543606AC3
:1025800004280DD1A06A0543E06A48B12046FEF751
:1025900023FE28B140206065012084F83500A6E7BD
:1025A000206845612046FEF7FDFD064694F85C1064
:1025B0003F208840B06000206065012084F835002D
:1025C000002094E73F8010F02DE9F04704460D46C7
:1025D00016461F464FF00008D4F8589000BF94F8F4
:1025E0003400012802D10220BDE8F087012084F8E0
:1025F000340000BF94F83500012825D1022084F86A
:102600003500002060653B46324629462046FEF7ED
:1026100038FE94F85C103F208840C9F80800206814
:10262000006840F0160021680860206C28B120681E
:10263000006840F00800216808602068006840F0E9
:1026400001002168086006E000BF002084F8340023
:1026500000BF4FF002084046C6E7000070B50446D0
:1026600000F018F906462546681C10B104480078A9
:10267000054400BF00F00EF9801BA842FAD370BDDC
:102680005C000020F8B502460B460025002400201F
:102690000021D6E0012606FA01F51E6806EA0504C7
:1026A000AC4274D11E7906F00306012E04D01E79C7
:1026B00006F00306022E13D190684F000326BE4099
:1026C000B0434F00DE68BE40304390605068012642
:1026D0008E40B0431E79C6F300168E4030435060E2
:1026E0001E7906F00306032E09D0D0684F0003269A
:1026F000BE40B0434F009E68BE403043D0601E795C
:1027000006F00306022E13D1CF0802F1200656F878
:1027100027004E07F70E0F26BE40B0434F07FF0EAF
:102720001E69BE403043CF0802F1200646F827005C
:1027300010684F000326BE40B0431E7906F0030622
:102740004F00BE40304310605E6806F44036002EF5
:1027500076D000BF002600963C4E366846F4804690
:102760003A4F3E603E46366806F48046009600BF0B
:1027700000BF374E8F0856F827008E07370F0F26F9
:10278000BE40B043334EB24202D1002624E057E0AF
:10279000314EB24201D101261EE0304EB24201D18B
:1027A000022619E02E4EB24201D1032614E02D4E2E
:1027B000B24201D104260FE02B4EB24201D10526D0
:1027C0000AE02A4EB24201D1062605E0284EB24266
:1027D00001D1072600E008268F073F0FBE40304397
:1027E0001B4E8F0846F82700224E3068A0435E68D3
:1027F00006F4801606B120431E4E3060361D306848
:10280000A0435E6806F4001606B12043194E361D3B
:102810003060184E361F3068A0435E6806F40036FC
:1028200006B12043134E361F3060361F3068A04378
:102830005E6806F4803606B120430E4E083E3060D6
:10284000491C1029FFF426AFF8BD000044380240AF
:102850000838014000000240000402400008024025
:10286000000C024000100240001402400018024018
:10287000001C0240083C0140024613690B400BB1AA
:10288000012000E0002070470AB1816101E00B04E3
:1028900083617047014800687047000054000020C1
:1028A00003480068034909780844014908607047F3
:1028B000540000205C00002010B50D48006840F472
:1028C00000700B4908600846006840F480600860AA
:1028D0000846006840F480700860032000F0E0F8CB
:1028E000002000F007F800F05FF8002010BD0000A5
:1028F000003C02402DE9F04188B004460027B8466C
:1029000000BF002001902348006840F020002149CA
:1029100008600846006800F02000019000BF00BF7A
:1029200002A903A800F092F9069F1FB900F0B6F9BA
:10293000054602E000F0B2F945001748B5FBF0F09B
:10294000A0F1010815481649086040F2E731144823
:10295000C160C0F80480002101618160816100F0E4
:10296000BFFC064696B90E4800F01CFD06466EB93F
:10297000372000F043F8102C07D2002221463720E0
:1029800000F050F80748046000E00126304608B027
:10299000BDE8F0814038024040420F000014004082
:1029A000240F00205800002008B500BF0020009030
:1029B0001148006840F480400F49086008460068EC
:1029C00000F48040009000BF00BF00BF00200090D6
:1029D000081F006840F08050091F08600846006822
:1029E00000F08050009000BF00BF00220F21901E19
:1029F00000F018F808BD00004438024001460846BF
:102A000000280DDB00BF00BF00F01F0301229A4029
:102A100043099B0003F1E023C3F8002100BF00BF7E
:102A200000BF70472DE9F05F80460D46164600272F
:102A300004F09CFA074639462A46334601F007005F
:102A4000C0F1070ABAF1040F02D94FF0040A01E0FD
:102A5000C0F1070AD14600F1040ABAF1070F02D209
:102A60004FF0000A01E0A0F1030AD4464FF0010A3A
:102A70000AFA09FAAAF1010A0AEA020A0AFA0CFA9F
:102A80004FF0010B0BFA0CFBABF1010B0BEA030B44
:102A90004AEA0B042146404604F070FABDE8F09F74
:102AA00000BF00F00702064B19684FF6FF031940FC
:102AB000044B0B4343EA0221014B196000BF7047EE
:102AC0000CED00E00000FA0570B504460D460CB9A7
:102AD000012070BD5848006800F00700A84209D2E4
:102AE00055490D700846006800F00700A84201D063
:102AF0000120EEE7207800F0020002281DD12078A6
:102B000000F00400042805D14C48006840F4E0506F
:102B10004A490860207800F00800082805D1474895
:102B2000006840F46040454908604448006820F06F
:102B3000F000A168084341490860207800F00100D6
:102B4000A8B36068012807D13C4808380068C0F382
:102B50004040B8B90120BCE76068022802D0606834
:102B6000032807D1354808380068C0F3406048B9E9
:102B70000120AEE7314808380068C0F3400008B9CA
:102B80000120A6E72D48006820F003006168084393
:102B90002A490860FFF77EFE064609E0FFF77AFE45
:102BA000801B41F28831884202D9032091E707E077
:102BB0002248006800F00C006168B0EB810FEDD195
:102BC0001D48006800F00700A84209D91A490D7095
:102BD0000846006800F00700A84201D0012078E70D
:102BE000207800F00400042807D11448006820F47D
:102BF000E050E168084311490860207800F00800BF
:102C0000082808D10D48006820F46040216940EA96
:102C1000C1000A49086000F061F808490968C1F379
:102C20000311074A515CC84006490860064800681D
:102C3000FFF760FE00204CE7003C024008380240ED
:102C4000EC9D000860000020580000200F22026068
:102C50000D4A126802F0030242600B4A126802F049
:102C6000F0028260084A126802F4E052C260064A2A
:102C7000126802F46042D2080261044A126802F04B
:102C800007020A607047000008380240003C02401A
:102C900001480068704700006000002000B5FFF7A1
:102CA000F7FF04490968C1F38221034A515CC84017
:102CB00000BD000008380240FC9D000800B5FFF789
:102CC000E7FF04490968C1F34231034A515CC84037
:102CD00000BD000008380240FC9D00082DE9F047C7
:102CE000002400250026A1462548006800F00C00BD
:102CF00020B1042805D008283AD105E0DFF88490F7
:102D000039E0DFF8849036E01D48001F006800F0CD
:102D10003F041B48001F006800F4800078B11A4887
:102D20001749091F0968C1F38811A0FB017001460A
:102D3000224600233846FDF7A3FA05460EE0114867
:102D40000F49091F0968C1F38811A0FB01700146F2
:102D5000224600233846FDF793FA05460848001F2F
:102D60000068C0F30140401C4600B5FBF6F902E0E4
:102D7000DFF8109000BF00BF4846BDE8F0870000B4
:102D8000083802400024F40000127A00F8B5044626
:102D90000CB90120F8BD207800F00100002874D0A3
:102DA000F948006800F00C0004280DD0F6480068CF
:102DB00000F00C00082813D1F348001F006800F44D
:102DC0008000B0F5800F0BD1EF4808380068C0F3E1
:102DD0004040002859D06068002856D10120D9E72A
:102DE00000BF6068B0F5803F08D1E7480838006848
:102DF00040F48030E449083908601EE06068B0F5AE
:102E0000A02F0DD1E0480838006840F48020DE494A
:102E1000083908600846006840F4803008600CE01B
:102E2000D9480838006820F48030D749083908604C
:102E30000846006820F48020086000BF606890B1F8
:102E4000FFF728FD054606E0FFF724FD401B642838
:102E500001D903209EE7CC4808380068C0F3404001
:102E60000028F1D011E0FFF715FD054606E0FFF759
:102E700011FD401B642801D903208BE7C2480838A4
:102E80000068C0F340400028F1D1207800F0020033
:102E900002285FD1BC48006800F00C0058B1BA4865
:102EA000006800F00C0008281CD1B748001F00681B
:102EB00000F48000B0B9B44808380068C0F340009E
:102EC00020B1E068012801D0012063E7AE4808384E
:102ED000006820F0F800216940EAC100AA490839D9
:102EE000086037E0E06800B30120A8490860FFF7F8
:102EF000D1FC054606E0FFF7CDFC401B022801D9B6
:102F0000032047E7A04808380068C0F340000028C5
:102F1000F1D09D480838006820F0F800216940EAA7
:102F2000C10099490839086014E0002097490860F9
:102F3000FFF7B0FC054606E0FFF7ACFC401B02289B
:102F400001D9032026E7904808380068C0F3400004
:102F50000028F1D1207800F0080008282CD1606901
:102F6000A8B101208A490860FFF794FC054606E0F5
:102F7000FFF790FC401B022801D903200AE7824892
:102F80006C300068C0F340000028F1D014E000204D
:102F90007F490860FFF77EFC054606E0FFF77AFCF4
:102FA000401B022801D90320F4E677486C30006802
:102FB000C0F340000028F1D1207800F0040004287C
:102FC00070D1002770483830006800F0805090B908
:102FD00000BF002000906C483830006840F08050FE
:102FE0006949383108600846006800F08050009058
:102FF00000BF00BF01276748006800F48070B0B9C7
:103000006448006840F4807062490860FFF742FC41
:10301000054606E0FFF73EFC401B022801D90320CD
:10302000B8E65C48006800F480700028F2D000BF69
:10303000A068012808D154486830006840F00100B9
:103040005149683108601DE0A06805280DD14E483F
:103050006830006840F004004B4968310860084659
:10306000006840F0010008600CE0474868300068E4
:1030700020F001004449683108600846006820F0EB
:103080000400086000BFA068A8B1FFF703FC054674
:1030900009E0FFF7FFFB401B41F28831884202D96B
:1030A000032077E626E0384868300068C0F3400027
:1030B0000028EED013E0FFF7EDFB054608E0FFF730
:1030C000E9FB401B41F28831884201D9032061E6C7
:1030D0002D4868300068C0F340000028EFD1012F70
:1030E00007D129483830006820F08050264938310F
:1030F000086000BFA069002845D02348006800F0A0
:103100000C0008285DD0A069022845D100201F4985
:103110000866FFF7BFFB054606E0FFF7BBFB401B59
:10312000022801D9032035E6174808380068C0F3A3
:1031300040600028F1D1D4E907010843616A40EA00
:1031400081110122A06AC2EB500041EA00412C200B
:10315000005D41EA00600C49091F086001200B492D
:103160000866FFF797FB054606E0FFF793FB401B59
:10317000022801D903200DE6034808380068C0F38F
:1031800040600028F1D049E0083802400000474282
:10319000800E474200700040002021490866FFF77A
:1031A00079FB054606E0FFF775FB401B022801D9B5
:1031B0000320EFE51B480068C0F340600028F2D10F
:1031C0002CE0A069012800D1E4E51648001D06683E
:1031D000A069012820D006F48001E06981421BD15A
:1031E00006F03F01206A814216D147F6C070304098
:1031F000616AB0EB811F0FD106F440310122A06A51
:10320000C2EB5000B1EB004F06D106F070612C20EC
:10321000005DB1EB006F01D00120BBE50020B9E5F6
:1032200000004742003802407047704730B5024600
:103230000B4600BF92F83C00012801D1022030BDAE
:10324000012082F83C0000BF022082F83D00106897
:1032500044681068816824F070041868044310689A
:103260004460184D1068A8421BD01068B0F1804F20
:1032700017D0154D1068A84213D0144D1068A842FD
:103280000FD0134D1068A8420BD0124D1068A84201
:1032900007D0114D1068A84203D0104D1068A84205
:1032A00005D121F080015868014310688160012038
:1032B00082F83D0000BF002082F83C0000BF00BF44
:1032C000BDE700000000014000040040000800408D
:1032D000000C004000040140004001400018004084
:1032E00010B504460CB9012010BD94F83D0028B972
:1032F000002084F83C00204600F026F8022084F8E4
:103300003D00211D206802F0CFFE012084F8460018
:1033100000BF84F83E0001213F20015540200155A7
:103320004120015500BF00BF012084F84200432026
:103330000155442001554520015500BF012084F866
:103340003D000020D0E7000008B50168B1F1804FD2
:103350000FD100BF002100911049096841F001011F
:103360000E4A11601146096801F00101009100BF89
:1033700013E00B4A016891420FD100BF0021009178
:103380000649096841F00201044A116011460968C2
:1033900001F00201009100BF00BF08BD40380240AB
:1033A00000040040014691F83D00012801D00120B1
:1033B0007047022081F83D000868C06840F00100B5
:1033C0000B68D8601A4B086898421BD00868B0F1A7
:1033D000804F17D0174B0868984213D0164B0868D7
:1033E00098420FD0154B086898420BD0144B0868D0
:1033F000984207D0134B0868984203D0124B0868D4
:1034000098420CD10868806800F00702062A0CD0A8
:103410000868006840F001000B68186005E0086863
:10342000006840F001000B6818600020C0E7000051
:10343000000001400004004000080040000C004073
:103440000004014000400140001800402DE9F04117
:1034500004460D46002700BF94F83C00012802D125
:103460000220BDE8F081012084F83C0000BF02206A
:1034700084F83D002068866826F0770626F47F46AB
:10348000206886602868502833D00CDC202850D073
:1034900004DC00284BD0102851D149E0302849D015
:1034A00040284CD139E060282DD0702807D0B0F5E5
:1034B000805F03D0B0F5005F41D10DE041E0D5E978
:1034C00002136A68206802F070FE2068866846F081
:1034D00077062068866034E0D5E902136A682068C0
:1034E00002F063FE2068806840F4804021688860B4
:1034F00027E0EA686968206802F048FF50212068E8
:1035000002F05EFE1DE0EA686968206802F051FF83
:103510006021206802F054FE13E0EA6869682068C0
:1035200002F034FF4021206802F04AFE09E000BFAB
:1035300000BF00BF2968206802F042FE01E00127B9
:1035400000BF00BF012084F83D0000BF002084F8C8
:103550003C0000BF384684E7704770B504462068D9
:10356000C5682068066906F00200022819D105F036
:103570000200022815D1401F216808610120207730
:103580002068806900F0030018B12046FFF7E4FFCF
:1035900005E0204600F0EAF8204600F09EF9002001
:1035A000207706F00400042819D105F0040004284F
:1035B00015D1C04321680861022020772068806906
:1035C00000F4407018B12046FFF7C6FF05E0204622
:1035D00000F0CCF8204600F080F90020207706F0BB
:1035E0000800082819D105F00800082815D1C043A3
:1035F00021680861042020772068C06900F003007A
:1036000018B12046FFF7A8FF05E0204600F0AEF80D
:10361000204600F062F90020207706F01000102804
:1036200019D105F01000102815D1C0432168086198
:10363000082020772068C06900F4407018B1204647
:10364000FFF78AFF05E0204600F090F8204600F0E2
:1036500044F90020207706F0010048B105F0010090
:1036600030B16FF0010021680861204600F0BCF91C
:1036700006F08000802809D105F08000802805D15F
:10368000C043216808612046FFF7CEFD06F04000E8
:10369000402809D105F04000402805D1C0432168E9
:1036A0000861204600F0ACF906F02000202809D17E
:1036B00005F02000202805D1C0432168086120467C
:1036C000FFF7B3FD70BD000010B586B004461421AD
:1036D00001A8FCF71FFE2068B0F1804F1DD100BF8C
:1036E000002000901E48006840F001001C4908605E
:1036F0000846006800F00100009000BF00BF0F20E6
:103700000190022002900020039004900120059077
:1037100001A91448FEF7B6FF20E01349206888424B
:103720001CD100BF002000900D48006840F001004F
:103730000B4908600846006800F00100009000BFD7
:1037400000BF4020019002200290002003900490CE
:103750000220059001A90348FEF794FF06B010BDB2
:1037600030380240000002400004004070472DE95C
:10377000F04104460D461646002700BF94F83C0071
:10378000012802D10220BDE8F081012084F83C002C
:1037900000BF36B1042E1BD0082E31D00C2E5ED1C6
:1037A00045E02946206802F015FD2068806940F058
:1037B0000800216888612068806920F00400216881
:1037C000886120688069296908432168886148E028
:1037D0002946206802F036FD2068806940F40060C8
:1037E000216888612068806920F480602168886190
:1037F00020688069296940EA01202168886130E0F9
:103800002946206802F05CFD2068C06940F008008D
:103810002168C8612068C06920F004002168C8617F
:103820002068C069296908432168C86119E02946F0
:10383000206802F081FD2068C06940F400602168C2
:10384000C8612068C06920F480602168C861206870
:10385000C069296940EA01202168C86101E00127A7
:1038600000BF00BF00BF002084F83C0000BF384606
:1038700089E710B504460CB9012010BD94F83D004D
:1038800028B9002084F83C00204600F025F80220EA
:1038900084F83D00211D206802F006FC012084F818
:1038A000460000BF84F83E0001213F200155402022
:1038B00001554120015500BF00BF012084F842009E
:1038C00043200155442001554520015500BF0120EA
:1038D00084F83D000020D0E77047704770B504467B
:1038E0000D4615B994F83E000BE0042D02D13F209F
:1038F000005D06E0082D02D14020005D01E041207E
:10390000005D012801D0012070BD1DB9022084F89E
:103910003E000EE0042D03D102213F20015508E0B6
:10392000082D03D102214020015502E0022141204F
:10393000015501222946206802F026FC234920680F
:10394000884203D022492068884201D1012000E04A
:10395000002028B12068406C40F400402168486491
:103960001A49206888421BD02068B0F1804F17D0D8
:1039700018492068884213D01749206888420FD020
:103980001649206888420BD011492068884207D028
:1039900013492068884203D01249206888420CD11C
:1039A0002068806800F00706062E0CD020680068AA
:1039B00040F001002168086005E02068006840F0E0
:1039C00001002168086000209EE70000000001401F
:1039D000000401400004004000080040000C0040CA
:1039E000004001400018004010B50446034920681B
:1039F000884201D1FEF754FF10BD000000140040C2
:103A00007047F8B504460D46164694F84200202843
:103A10002DD105B10EB90120F8BD01202063002091
:103A2000606332462946204602F0B4FF0746206B09
:103A3000012819D100BF0020009020680068009084
:103A400020684068009000BF00BF00BF00BF216831
:103A50000C3151E8001F41F0100021680C3141E8A1
:103A60000002002AF3D100E001273846D4E7022003
:103A7000D2E7704770B5044616492068884201D1E4
:103A8000002018E014492068884201D1012012E08A
:103A900012492068884201D102200CE010492068B8
:103AA000884201D1032006E00E492068884201D1F6
:103AB000042000E00520054605EB45120A4B03EB08
:103AC000C202111D05EB451253F832008022FFF7A8
:103AD00098FF70BD001001400044004000480040C5
:103AE000004C004000500040F80000202DE9F84F45
:103AF0000446206805682068C668206847694FF05A
:103B00000009CA4605F00F09B9F1000F0AD105F006
:103B1000200038B106F0200020B1204602F0A5FDBB
:103B2000BDE8F88FB9F1000F7CD007F0010018B99B
:103B300006F49070002875D005F0010030B106F44D
:103B4000807018B1606C40F00100606405F0040002
:103B500030B107F0010018B1606C40F00200606401
:103B600005F0020030B107F0010018B1606C40F0C0
:103B70000400606405F0080048B106F0200010B9A8
:103B800007F0010018B1606C40F008006064606CE0
:103B9000002846D005F0200028B106F0200010B122
:103BA000204602F062FD20684069C0F3801A606C14
:103BB00000F0080010B9BAF1000F2DD0204602F035
:103BC000FBFC2068406900F04000402820D100BF85
:103BD00000BF2168143151E8001F21F04000216826
:103BE000143141E80002002AF3D100BFE06B50B16C
:103BF0007F48E16B0865E06BFEF73BFB88B1E06B4B
:103C0000016D88470DE02046FFF734FF09E009E029
:103C10002046FFF72FFF04E02046FFF72BFF002090
:103C200060647DE7206B012878D105F01000002842
:103C300074D006F010000028FAD000BF00200090D9
:103C400020680068009020684068009000BF00BFB6
:103C50002068406900F04000402870D1E06B0068A7
:103C600040681FFA80F8B8F1000F58D0A08D404589
:103C700055DDA4F82E80E06BC069B0F5807F43D09D
:103C800000BF00BF21680C3151E8001F21F4807093
:103C900021680C3141E80002002AF3D100BF00BFC7
:103CA00000BF2168143151E8001F21F00100216894
:103CB000143141E80002002AF3D100BF00BF00BF69
:103CC0002168143151E8001F21F0400021681431AF
:103CD00041E80002002AF3D100BF202084F842000E
:103CE0000020206300BF00BF21680C3151E8001F95
:103CF00021F0100021680C3141E80002002AF3D1C4
:103D000000BFE06BFEF75FFA02206063A08DE28DDA
:103D1000801A81B22046FFF7ACFE0EE052E0A08D83
:103D200040450AD1E06BC069B0F5807F05D1022023
:103D30006063A18D2046FFF79CFEF1E6FFE7A08DB2
:103D4000E18D401A1FFA80F8E08DD0B3B8F1000F72
:103D500037D000BF00BF21680C3151E8001F21F4AB
:103D6000907021680C3141E80002002AF3D100BFB5
:103D700000BF00BF2168143151E8001F21F001008D
:103D80002168143141E80002002AF3D100BF20204D
:103D900084F842000020206300BF00BF21680C317E
:103DA00051E8001F21F0100021680C3141E80002A9
:103DB000002AF3D100BF0220606341462046FFF78E
:103DC00058FEADE605F0800030B106F0800018B175
:103DD000204602F04BFEA3E605F0400030B106F0AD
:103DE000400018B1204602F01DFC99E600BF97E69E
:103DF0001964000810B504460CB9012010BDA06973
:103E000000B100E000BF94F8410028B9002084F818
:103E10004000204600F02AF8242084F84100206861
:103E2000C06820F400502168C860204602F09CFC65
:103E30002068006920F4904021680861206840698A
:103E400020F02A00216848612068C06840F40050D2
:103E50002168C86000206064202084F8410084F854
:103E600042000020606300BFC8E7000010B586B0C4
:103E70000446142101A8FCF74DFAFD492068884248
:103E800078D100BF00200090FA48006840F400207C
:103E9000F84908600846006800F40020009000BF60
:103EA00000BF00BF00200090F2481038006840F0CA
:103EB0000400F049103908600846006800F004006A
:103EC000009000BF00BF4FF44060019002200290BC
:103ED00000200390032004900820059001A9E648E3
:103EE000FEF7D0FBE548E649086040054860002140
:103EF000E3488160C1604FF480610161002141614C
:103F000081614FF48071C161002101624162FEF75D
:103F1000E5FA08B1FDF7DCF900BFD948E063846336
:103F200000BFD6483030D74908604FF00060486085
:103F30004021D44881600021C1604FF4806101615B
:103F4000002141618161C16101624162FEF7C6FAEF
:103F500008B1FDF7BDF900BFCA48A063846300BF84
:103F6000002205213420FEF75DFD3420FEF746FDDA
:103F7000B8E2FFE7C449206888427CD100BF002036
:103F80000090BC48006840F48010BA4908600846B8
:103F9000006800F48010009000BF00BF00BF002048
:103FA0000090B4481038006840F00400B14910395E
:103FB00008600846006800F00400009000BF00BFE1
:103FC00000BF002000900846006840F0080008602C
:103FD0000846006800F00800009000BF00BF881489
:103FE00001900220029000200390032004900820FA
:103FF000059001A9A048FEF745FB0420019002208E
:10400000029000200390032004900820059001A94D
:104010009E48FEF737FB994878309D4908604FF07D
:104020000060486040219A4881600021C1604FF4DF
:1040300080610161002141618161C1610162416270
:10404000FEF74CFA08B1FDF743F900BF9048A063B2
:10405000846300BF894830388E490860C0054860D5
:1040600000218C488160C1604FF4806101610021B2
:104070004161816100E018E04FF48071C16100216D
:1040800001624162FEF72AFA08B1FDF721F900BF8B
:104090008048E063846300BF002205213520FEF7DD
:1040A000C1FC3520FEF7AAFC1CE27B49206888424F
:1040B0007BD100BF002000906E48001D006840F0DA
:1040C00010006C49091D08600846006800F01000E7
:1040D000009000BF00BF00BF00200090654810386E
:1040E000006840F001006349103908600846006824
:1040F00000F00100009000BF00BF4FF4C0600190CD
:1041000002200290002003900320049007200590D5
:1041100001A96248FEF7B6FA6148624908604FF0AB
:104120000060486000215F488160C1604FF4806199
:1041300001610021416181614FF48071C161002101
:1041400001624162FEF7CAF908B1FDF7C1F800BF8C
:104150005448E063846300BF514878305249086096
:104160004FF00060486040214F4881600021C160ED
:104170004FF480610161002141618161C16101628F
:104180004162FEF7ABF908B1FDF7A2F800BF46485F
:10419000A063846300BF002205212520FEF742FCB6
:1041A0002520FEF72BFC9DE1FFE74049206888426F
:1041B0005DD100BF002000902E48006840F4003020
:1041C0002C4908600846006800F40030009000BFE9
:1041D00000BF00BF0020009026481038006840F063
:1041E00008002449103908600846006800F00800FB
:1041F000009000BF00BF60200190022002900020CC
:104200000390032004900720059001A91F48FEF7A2
:1042100039FA1A484830264908604FF00060486073
:10422000002123488160C1604FF480610161002159
:10423000416181614FF48071C1610021016241627D
:10424000FEF74CF908B1FDF743F800BF1848E063EA
:10425000846300BF09486030164908604FF0006071
:1042600048604021134881600021C16024E03FE0A4
:10427000004C0040403802400008024040600240CC
:10428000A40A0020040B002000500040000C024053
:10429000640B0020C40B002000100140000002400D
:1042A00040640240240C0020840C002000440040A4
:1042B000E40C0020440D00204FF4806101610021D6
:1042C00041618161C16101624162FEF707F908B194
:1042D000FCF7FEFF00BF8448A063846300BF002298
:1042E00005212620FEF79EFB2620FEF787FBF9E03E
:1042F0007E492068884279D100BF002000907C4828
:10430000006840F480207A4908600846006800F49C
:104310008020009000BF00BF00BF002000907448C4
:104320001038006840F008007149103908600846EC
:10433000006800F00800009000BF00BF4FF440701C
:104340000190022002900020039003200490072097
:10435000059001A96748FEF795F967486749086025
:104360004FF000604860002164488160C1604FF4F4
:10437000806101610021416181614FF48071C161FF
:10438000002101624162FEF7A9F808B1FCF7A0FF25
:1043900000BF5A48E063846300BF57483030584933
:1043A00008604FF00060486040215548816000215E
:1043B000C1604FF480610161002141618161C1618F
:1043C00001624162FEF78AF808B1FCF781FF00BF85
:1043D0004B48A063846300BF002205212720FEF71D
:1043E00021FB2720FEF70AFB7CE0FFE74549206818
:1043F000884277D100BF002000903D48001D006832
:1044000040F020003A49091D08600846006800F0A5
:104410002000009000BF00BF00BF00200090344883
:104420001038006840F0040031491039086008462F
:10443000006800F00400009000BF00BFC0200190A1
:104440000220029000200390032004900820059091
:1044500001A92D48FEF716F92C482D490860800562
:10446000486000212A488160C1604FF48061016189
:104470000021416181614FF48071C16100210162BD
:104480004162FEF72BF808B1FCF722FF00BF20487D
:10449000E063846300BF1D4878301E4908604FF018
:1044A0002060486040211B4881600021C1604FF4BA
:1044B00080610161002141618161C16101624162EC
:1044C000FEF70CF808B1FCF703FF00BF1148A0632A
:1044D000846300BF002205214720FEF7A3FA47208E
:1044E000FEF78CFA06B010BD440D002000480040D5
:1044F00040380240000C024028600240A40D002019
:10450000040E00200014014000080240286402400C
:10451000640E0020C40E0020704770472DE9F84F4C
:1045200004460E46174699464FF0000A94F841009B
:10453000202850D106B117B90120BDE8F88F00201E
:104540006064212084F84100FEF7A4F98246A78424
:10455000E784A068B0F5805F04D1206910B9002518
:10456000B04602E035464FF000081EE053460022F8
:1045700080212046CDF8009002F0A8FA20B120203A
:1045800084F841000320D8E745B9B8F80000C0F32B
:1045900008002168486008F1020803E028782168D3
:1045A00048606D1CE08C401EE084E08C0028DDD16A
:1045B0005346002240212046CDF8009002F086FAB2
:1045C00020B1202084F841000320B6E7202084F8A1
:1045D00041000020B1E70220AFE70000F7B5044634
:1045E000154694F8410020283ED1019800B10DB93C
:1045F0000120FEBD01982062A584E584002060644E
:10460000212084F841001948A16BC8631848A16BA8
:1046100008641848A16BC8640020A16B086501AE4E
:1046200023681A1D31682B46A06BFDF7CDFF30B112
:1046300010206064202084F841000120D9E76FF049
:1046400040002168086000BF00BF2168143151E8B4
:10465000001F41F080002168143141E80002002A67
:10466000F3D100BF0020C4E70220C2E75365000871
:10467000AB6500082B64000870B504461349206838
:10468000884201D1002018E011492068884201D1F8
:10469000012012E00F492068884201D102200CE07D
:1046A0000D492068884201D1032006E00B492068AB
:1046B000884201D1042000E005200546042D04D1E4
:1046C000002241020648FEF7DFF870BD00100140ED
:1046D0000044004000480040004C004000500040B2
:1046E000000C0240704700BFFEE7000010B5012239
:1046F00080210448FEF7C8F8012240210148FEF756
:10470000C3F810BD000402402DE9F04104460E46F6
:1047100017464FF000080020207001228021274812
:10472000FEF7B2F880251FE0012240212348FEF762
:10473000ABF80120FCF7BCFD384600F089F8804654
:104740000320FCF7B5FD80211C48FEF795F810B159
:10475000207828432070002240211848FEF794F862
:104760000120FCF7A5FD6D10002DDDDC2EB9002227
:1047700080211248FEF788F804E0012280210F48CA
:10478000FEF782F80120FCF793FD012240210B483F
:10479000FEF77AF80520FCF78BFD00224021074840
:1047A000FEF772F8012280210448FEF76DF814200C
:1047B000FCF77EFD4046BDE8F081000000040240A9
:1047C00010B5012280210F48FEF75EF80120FCF7AA
:1047D0006FFD012240210B48FEF756F80120FCF73F
:1047E00067FD002280210748FEF74EF80A20FCF7FB
:1047F0005FFD002240210348FEF746F80A20FCF73F
:1048000057FD10BD0004024010B5002240210F48A2
:10481000FEF73AF80120FCF74BFD002280210B48FF
:10482000FEF732F80120FCF743FD01224021074842
:10483000FEF72AF80A20FCF73BFD012280210348FD
:10484000FEF722F80A20FCF733FD10BD00040240F9
:1048500070B5044600250AE0201EA4F10101CCB287
:1048600001D1042070BD4FF47A70FCF721FD402186
:104870000348FEF701F80028EED02846F2E70000D2
:104880000004024070B505460026802421E004EAB9
:10489000050028B9002280211D48FDF7F5FF04E03E
:1048A000012280211A48FDF7EFFF0120FCF700FDEF
:1048B000012240211648FDF7E7FF0520FCF7F8FC30
:1048C000002240211248FDF7DFFF0120FCF7F0FC39
:1048D0006410002CDBDC012280210D48FDF7D4FFA1
:1048E000012240210A48FDF7CFFF0120FCF7E0FC40
:1048F00080210748FDF7C0FF00B1012600224021BA
:104900000348FDF7C1FF1420FCF7D2FC304670BD10
:104910000004024030B50246002300200BE00C8862
:10492000012585402C402CB1C0F10F050124AC407D
:104930001C43A3B2401C1028F1DB138030BD30B5FE
:104940000246002300200BE00C78012585402C4016
:104950002CB1C0F107050124AC401C43E3B2401C5C
:104960000828F1DB137030BD5448007D01281DD1AB
:1049700053480078D0B9002016E05049091D31F89D
:104980001010891C0AB24D49091D21F8102031F977
:104990001010B1F5E17F05DD4FF4E1724749091DC3
:1049A00021F81020411CC8B20428E6DB4348407DB2
:1049B00001281ED143480078D8B9002017E03F49AC
:1049C000091D31F9101002290ADB3C49091D31F893
:1049D0001010891E0AB23949091D21F8102004E07F
:1049E00000223649091D21F81020411CC8B20428B4
:1049F000E5DB3248007D324908703048407D31495E
:104A00000870002057E02D49091D31F910100029C8
:104A100005DA00222949091D21F810200CE0274958
:104A2000091D31F91010B1F5E17F05DD4FF4E17298
:104A30002249091D21F810202049091D31F91020B3
:104A4000083131F910108A4233D01F4951F8201033
:104A500039B91A49091D31F910101C4A12685163FD
:104A600020E0194951F82010042907D11349091DE4
:104A700031F91010154A1268916313E0124951F888
:104A80002010082907D10D49091D31F910100F4ACE
:104A90001268D16306E00949091D31F910100B4A6B
:104AA000126811640549091D31F81020083121F8F8
:104AB0001020411CC8B20428A5DB7047F458002020
:104AC0002A0700202B070020889E00086408002089
:104AD00010B5002433E01B4850F824101A48FEF7A4
:104AE000FDFE184850F8240020B900201649096836
:104AF000486317E0134850F82400042804D100202C
:104B00001149096888630DE00E4850F82400082810
:104B100004D100200C490968C86303E000200A4959
:104B2000096808640021094820F81410083020F8AA
:104B3000141001200549091F0855601CC4B2042C3B
:104B4000C9DB10BD889E000864080020F8580020CA
:104B50001FB500200090019002900390154816495F
:104B600008604FF480304860002113488160016183
:104B7000017680F82010C162104981620021C16075
:104B80000121C161002180F8301001214161FCF751
:104B9000E1FC08B1FCF79CFB0A2000900120019089
:104BA0000020029069460448FCF706FC08B1FCF7B7
:104BB0008FFB1FBD00200140F40700200100000F03
:104BC00010B50E480E4908600420486000210C48CA
:104BD0008160C1604FF4502101614FF4A001416137
:104BE0000021017641768176C17601774177FDF724
:104BF0008AF908B1FCF76CFB10BD000000640040AE
:104C00003C08002008B500BF002000903E48006826
:104C100040F480003C4908600846006800F48000C9
:104C2000009000BF00BF00BF002000900846006851
:104C300040F4001008600846006800F4001000907E
:104C400000BF00BF002205210B20FDF7EBFE0B206B
:104C5000FDF7D4FE002205210C20FDF7E3FE0C2019
:104C6000FDF7CCFE002205210D20FDF7DBFE0D2017
:104C7000FDF7C4FE002205210E20FDF7D3FE0E2015
:104C8000FDF7BCFE002205210F20FDF7CBFE0F2013
:104C9000FDF7B4FE002205211020FDF7C3FE102011
:104CA000FDF7ACFE002205211120FDF7BBFE11200F
:104CB000FDF7A4FE002205212F20FDF7B3FE2F20D3
:104CC000FDF79CFE002205213920FDF7ABFE3920BF
:104CD000FDF794FE002205213A20FDF7A3FE3A20BD
:104CE000FDF78CFE002205214520FDF79BFE4520A7
:104CF000FDF784FE002205214620FDF793FE4620A5
:104D0000FDF77CFE08BD00003038024010B5304889
:104D100002F005FA2F4908602F4802F000FA2F49E7
:104D200008602F4B002201212E4802F0D5FA2E49AF
:104D300008602E4A00212E4802F071FA2D490860C1
:104D40002D4A00212D4802F06AFA2D4908602D4AAB
:104D500000212D4802F063FA2C4908602C4A0021FA
:104D60002C4802F05CFA2C4908602C4A00212C489F
:104D700002F055FA2B4908602B4A00212B4802F01B
:104D80004EFA2B4908602B4A00212B4802F047FAC3
:104D90002A4908602A4A00212A4802F040FA2A4992
:104DA00008602A4A00212A4802F039FA2949086095
:104DB000294A0021294802F032FA29490860294A83
:104DC0000021294802F02BFA2849086010BD000094
:104DD000C49D000844000020D49D00084800002025
:104DE000B49D00085D5F000840000020749B00082F
:104DF000B15F000800000020989B0008050B000828
:104E000004000020BC9B00082D570008080000206B
:104E1000E09B0008495A00080C000020049C000890
:104E20004113000810000020289C0008B51000085D
:104E3000140000204C9C00083D540008180000207D
:104E4000709C0008595400081C000020949C000825
:104E50006D0E000820000020009D00084D53000842
:104E60002C000020249D00088D52000830000020F6
:104E700000B587B0142102A8FBF74CFA00BF002050
:104E800001904C48006840F080004A49086008469C
:104E9000006800F08000019000BF00BF00BF00204C
:104EA00001900846006840F0040008600846006869
:104EB00000F00400019000BF00BF00BF002001907F
:104EC0000846006840F0010008600846006800F0ED
:104ED0000100019000BF00BF00BF00200190084604
:104EE000006840F0080008600846006800F008000C
:104EF000019000BF00BF00BF00200190084600687D
:104F000040F0020008600846006800F002000190CE
:104F100000BF00BF0022C9142748FDF7B5FC0122DD
:104F2000D1032648FDF7B0FC012210212448FDF7EB
:104F3000ABFC0022C0212248FDF7A6FC4FF4006024
:104F400002900120039004900020059002A91A48C5
:104F5000FDF798FB4FF400400290012003900020E1
:104F60000490059002A91548FDF78CFB10200290D3
:104F70000120039000200490059002A91048FDF73D
:104F800081FB4020029001200390049002200590B4
:104F900002A90B48FDF776FB8020029011200390B8
:104FA000012004900220059002A90548FDF76AFB44
:104FB00007B000BD30380240000C02400000024043
:104FC0000004024000B58DB0002009900A900B90BB
:104FD0000C90079008901C216846FBF79BF94FF056
:104FE00080402B49086029204860002128488160C2
:104FF00040F2F311C160002101618161FEF770F997
:1050000008B1FCF765F94FF48050099009A92048D0
:10501000FEF71CFA08B1FCF75BF91D48FEF729FC06
:1050200008B1FCF755F900200790089007A9184827
:10503000FEF7FCF808B1FCF74BF960200090002067
:10504000019002900490002269461148FEF78FFB00
:1050500008B1FCF73DF9042269460D48FEF787FBCD
:1050600008B1FCF735F9082269460948FEF77FFBCD
:1050700008B1FCF72DF90C2269460548FEF777FBCD
:1050800008B1FCF725F90248FEF71EFB0DB000BD84
:105090006408002000B58DB0002009900A900B90A4
:1050A0000C90079008901C216846FBF733F92148C3
:1050B000214908605320486000211F48816044F660
:1050C0001F61C160002101618161FEF709F908B12A
:1050D000FCF7FEF84FF48050099009A91648FEF736
:1050E000B5F908B1FCF7F4F81348FEF7C2FB08B1B4
:1050F000FCF7EEF800200790089007A90E48FEF78D
:1051000095F808B1FCF7E4F86020009040F2DB501D
:105110000190002002900490002269460648FEF7A4
:1051200026FB08B1FCF7D4F80348FEF7CDFA0DB022
:1051300000BD000000040040AC08002010B50B4882
:105140000B4908604FF4E130486000210848816055
:10515000C16001610C21416100218161C161FEF7E3
:1051600049FE08B1FCF7B4F810BD0000004C004047
:10517000F408002010B50B480B4908604FF4E130EB
:105180004860002108488160C16001610C214161D3
:1051900000218161C161FEF72DFE08B1FCF798F88E
:1051A00010BD0000005000403C09002010B50B4825
:1051B0000B4908604FF4E1304860002108488160E5
:1051C000C16001610C21416100218161C161FEF773
:1051D00011FE08B1FCF77CF810BD00000010014082
:1051E0008409002010B50B480B4908604FF4E130EA
:1051F0004860002108488160C16001610C21416163
:1052000000218161C161FEF7F5FD08B1FCF760F88E
:1052100010BD000000440040CC09002010B50B4830
:105220000B4908604FF4E130486000210848816074
:10523000C16001610C21416100218161C161FEF702
:10524000D9FD08B1FCF744F810BD0000004800404B
:10525000140A002010B50B480B4908604FF4E130E8
:105260004860002108488160C16001610C214161F2
:1052700000218161C161FEF7BDFD08B1FCF728F88E
:1052800010BD0000001401405C0A002004F086F903
:105290002A49086000BF2A4890F83600002848D004
:1052A00028488088A0F2DC5004B22648C088A0F2CA
:1052B000DC5005B200262DE040F2DC5736B1012E5D
:1052C00009D0022E0CD0032E16D10FE004F2DC50D0
:1052D000284407B210E004F2DC50401B07B20BE098
:1052E00040F2DC50001B284407B205E040F2DC50DD
:1052F000001B401B07B200BF00BFB8B240F2BC7237
:105300004FF47F71FBF7A6FD0D490E3121F8160011
:10531000701CC6B2042ECFDB4FF0FF310A48006884
:1053200001F0CCFE00F0AAF90748006801F050FF38
:1053300000BF3221014803F075F8ACE77807002080
:105340003C070020EE000020480000202DED028BDD
:1053500004F024F91C49086000BF1C4890F836008E
:1053600068B31A488088A0F2DC5000EE100AF8EE0C
:10537000C00A9FED171A80EE810ADFED160A30EEA3
:10538000200AB0EE408A00200AE0BCEEC80A10EE07
:10539000101A8AB20D49891D21F81020411CC8B28B
:1053A0000428F2DB4FF0FF310B48006801F086FE65
:1053B00000F08EF90848006801F00AFF00BF3221B2
:1053C000014803F02FF8C8E7740700203C070020CD
:1053D0009A99D93F0080BB444400002000BFFEE7FB
:1053E00070B505460C46042D01DB062070BDB4F5F2
:1053F0007A7F01DD4FF47A7414F57A7F00DA0C4C71
:10540000681E00EB40000B4921F820402246AF21E6
:10541000284601F0FFFC06463EB10221681E00EB63
:105420004000044A02EB800081723046DEE7000053
:1054300018FCFFFFB45A002000BFFEE704F0AEF8EE
:105440000449086000BFFFF78FFA3221014802F0DB
:10545000E9FFF8E7500000202DED088BA2B000BF57
:105460007C494FF0FF32D1F80C0201A903F05EFD38
:105470000028F5D09DF80600EB28F1D19DF8070033
:105480009028EDD19DF814000D28E9D19DF8150064
:105490000A28E5D1704800785F2804DA6E48007861
:1054A000401C6D4908706C4800785F2814DB6A481E
:1054B0000078642810DA9DF80C109DF80B0001EBC1
:1054C00000206649098808446449088062480078D9
:1054D000401C6149087007E05F480078642803D1E8
:1054E00040F202405E4908809DF80E109DF80D00C4
:1054F00001EB002000B25B4908800846B0F90000CB
:1055000041F26701884202DD012057490870564880
:1055100000780028A4D19DF80C109DF80B0001EB39
:1055200000204F4988800846808842F210718842E6
:1055300007DA4B4880884A49488008464088C88036
:1055400003E04748C088464948804648B0F9000013
:10555000434908819DF810109DF80F0001EB0020D1
:105560003F494881084640880988884219DD3C48FF
:1055700040883B490988401A00EE100AB8EEC00A7C
:10558000DFED3A0A20EE200ABCEEC00A10EE100A47
:1055900080B200EE100AB8EE400A314880ED030AEE
:1055A00004E09FED330A2E4880ED030A2C4890ED6D
:1055B0000E0A10EE101A0846FAF7DDFF41EC1B0B3D
:1055C0009FED2C0B53EC102BFAF756FF41EC190B07
:1055D000234890ED030AD0ED040A30EE600A10EE85
:1055E000101A0846FAF7C7FF41EC1B0B9FED210B81
:1055F00053EC102BFAF740FF41EC1A0B53EC192B2C
:10560000FAF793FE41EC180BFAF7C8FF1449486308
:1056100000201AE012490C3101EB800191ED000AE3
:105620000F490C31421C01EB820181ED000A0C494B
:10563000343101EB800191ED000A0949343101EB6D
:10564000820181ED000A411CC8B20928BFF608AFEB
:10565000E0E70000F80000203407002036070020B3
:105660001C590020380700203A070020014D843FD4
:1056700000000000000000000000E03F70B50024C2
:1056800020E01248407820B110481E3030F8145005
:1056900003E00E480E3030F8145040F2BC724FF464
:1056A0007F712846FBF7D6FB05460848263020F8D0
:1056B0001450A5F2DC5211B2621CD0B2FFF790FE7A
:1056C000601CC4B2042CDCDB70BD00003C07002071
:1056D00030B5002420E01248007820B11048163080
:1056E00030F8145003E00E48801D30F8145040F29A
:1056F000BC724FF47F712846FBF7ACFB05460848A7
:10570000263020F814500748005D00EB40000649A1
:1057100021F83050601CC4B2042CDCDB30BD00002A
:105720003C070020E4070020385B002008B503F0A8
:1057300035FF9B49086000BF4FF0FF31012002F0A8
:1057400081FCEB2097490870902048708020887079
:105750000020C87008714871934991ED030AF2EE78
:10576000040A20EE200ABDEEC00A10EE101A08B29C
:10577000694600F0E3FB9DF800008A4988719DF8B6
:105780000100C871884991ED010AF2EE040A20EE89
:10579000200ABDEEC00A10EE101A08B2694600F0E9
:1057A000CDFB9DF800007F4908729DF8010048720A
:1057B0007D4991ED020AF2EE040A20EE200ABDEEC8
:1057C000C00A10EE101A08B2694600F0B7FB9DF847
:1057D0000000744988729DF80100C8727348B0F9DE
:1057E00008000A2190FBF1F005B26946284600F056
:1057F000A5FB9DF800006B4908739DF801004873F4
:105800006B4991ED030AF2EE040A20EE200ABDEE88
:10581000C00A10EE101A08B2694600F08FFB9DF81E
:105820000000604988739DF80100C8735F4991EDDD
:10583000030ABDEEC00A10EE101A08B2694600F065
:105840007DFB9DF80000574908749DF801004874DD
:10585000574890ED040ABCEEC00A10EE100A887496
:10586000544800880012C87452480078087552489D
:105870000079487551488078087600201CE050492E
:10588000095C01EB41014F4A02EBC101097A1A227E
:1058900002EB4002434B99544949095C01EB410139
:1058A000484A02EBC10109890A121A2101EB4001A1
:1058B000491C5A54411CC8B20428E0DB00201CE0FB
:1058C0003F49095C01EB41013E4A02EBC101097B02
:1058D0002A2202EB4002334B99543949095C01EB0F
:1058E0004101384A02EBC10189890A122A2101EBE0
:1058F0004001491C5A54411CC8B20428E0DB002076
:105900000EE02F49095C01EB41012E4A02EBC10177
:10591000C97A3A2202EB4002224B9954411CC8B288
:105920000428EEDB2848808800121E4981F84D00CB
:105930002548007981F84E002348C088001281F87C
:105940004F002148807981F850001F4800880012DC
:1059500081F851001C48007881F852001A484088AC
:10596000001281F853001848807881F854007C2197
:105970000C48FBF7F7F9044620120A4981F87C002D
:1059800081F87D400D2081F87E000A2081F87F009B
:105990000E49802208680349FEF720FECCE600008D
:1059A000E80000205A5800200C5900201C59002003
:1059B000DC5800202C070020F45800203C07002071
:1059C000E4070020385B0020985B0020F8000020EE
:1059D00070B5A2B000240025194E27E04FF4FA72EA
:1059E00001A9D6F8040103F0A1FA01281ED1BDF8DF
:1059F000040010281AD39DF80600EB2816D19DF854
:105A00000700902812D19DF814000D280ED19DF8A2
:105A100015000A280AD19DF80C209DF80B1002EB06
:105A2000012188B20544611CCCB200BF052CD5DB36
:105A30000520B5FBF0F00349088022B070BD0000DE
:105A4000000200201C590020A2B0842101A8FAF70E
:105A500061FC00BF58494FF0FF32D1F8040101A9A1
:105A600003F064FA00287CD09DF80600EB280FD1E3
:105A70009DF8070090280BD19DF80800802807D1D9
:105A80009DF884000D2803D19DF885000A2800D0D8
:105A9000E0E740210DF10600FBF764F904469DF8AC
:105AA0008200B0EB242F04D19DF88300E1B288423C
:105AB00000D0CFE7002012E0042101EB40020DF1FD
:105AC00006018A5C032101EB40030DF10601C95C6C
:105AD00002EB0121394A22F81010411CC8B20328F8
